:020000040800F2
:1000000068C70020DD010008634500082D0F0008C7
:1000100061450008AD080008956400080000000074
:10002000000000000000000000000000B3600008B5
:10003000C30B0008000000008B4700087561000832
:10004000F7010008F7010008F7010008F7010008B0
:10005000F7010008F7010008F7010008F7010008A0
:10006000F7010008F7010008F7010008F701000890
:10007000F7010008F7010008F7010008F701000880
:10008000F7010008F7010008F7010008F701000870
:10009000F7010008F7010008F7010008F701000860
:1000A000F7010008F7010008F7010008F701000850
:1000B000F7010008C9610008F7010008F70100080E
:1000C000F7010008F7010008F7010008F701000830
:1000D000F7010008F9620008F7010008F7010008BD
:1000E000F7010008F7010008F7010008F701000810
:1000F000F7010008F7010008F7010008F701000800
:10010000F7010008594C0008FD610008F7010008DC
:10011000F7010008F701000885620008F7010008F0
:10012000F7010008F7010008F7010008F7010008CF
:1001300000F002F800F042F80AA090E8000C8244B7
:100140008344AAF10107DA4501D100F037F8AFF294
:10015000090EBAE80F0013F0010F18BFFB1A43F0A5
:1001600001031847B88B0000D88B0000103A24BF59
:1001700078C878C1FAD8520724BF30C830C144BF0C
:1001800004680C607047000000230024002500264E
:10019000103A28BF78C1FBD8520728BF30C148BFEA
:1001A0000B607047642900F0A780782900F0E08098
:1001B000002070471FB51FBD10B510BD00F024FB17
:1001C0001146FFF7F7FF07F0FDFD00F042FB03B417
:1001D000FFF7F2FF03BC06F0CAFA000009488047A7
:1001E00009480047FEE7FEE7FEE7FEE7FEE7FEE719
:1001F000FEE7FEE7FEE7FEE704480549054A064B31
:1002000070470000796100083101000868C10020D2
:1002100068C7002068C3002068C30020704710B57D
:100220004C1084EA530404D54042C1F1000138BFA8
:10023000491E1B4204D55242C3F1000338BF5B1E66
:1002400000F0A7F914F0804F04D04042C1F1000142
:1002500038BF491E14F0004F04D05242C3F10003CE
:1002600038BF5B1E10BD00000FB4044910B503AACF
:10027000029800F07DFA10BC5DF814FB50000020DD
:100280000FB41CB5074B06AA7B446946009005983D
:1002900000F055FA0020694600F064FA1CBC5DF8D5
:1002A00014FB0000D904000070B50446856900689D
:1002B000C10601D5302600E02026C00707D070BD5A
:1002C000D4E9012130469047206A401C20626D1E0F
:1002D000F6D570BD70B5044685690078C00707D1B2
:1002E00070BDD4E9012120209047206A401C206283
:1002F0006D1EF6D570BD00002DE9F04106460024C4
:1003000010687529314616A510D0AFF3008000287B
:1003100002DA404213A507E031688A0701D512A529
:1003200002E0490704D511A5012401E0AFF30080E4
:1003300000210A2206F1240709E0B0FBF2FCB0FB21
:10034000F2F302FB1C00303078541846491C002898
:10035000F3D123462A463046BDE8F04100F090B97B
:10036000000000002D0000002B0000002000000015
:1003700070B504460D4621461068AFF30080218811
:10038000090502D50F4A7A4402E00E4A7A440E3239
:10039000002104F1240305E000F00F060009965D3A
:1003A0005E54491C0028F7D120780023000704D5AB
:1003B000702D02D009B1022311322046BDE87040F1
:1003C00000F05EB9588900002DE9F05F89460446C7
:1003D0004FF0000ADFF824B1FB44C0F820A020460B
:1003E000E168884700287DD0252806D0D4E901217E
:1003F0009047206A401C2062F1E700255F462046B6
:10040000E16888472028064607DB312E05D2B81957
:1004100010F8200C08B10543F1E7A80701D525F035
:100420000405C4F81CA00027C4F818A02A2E09D07F
:10043000304606F095F938B304EB8708303EC8F82B
:10044000186019E059F8041B204604EB87029161FB
:10045000E1688847012F064618D1E069002820DAB4
:1004600025F020051DE0D8F8180000EB800006EB11
:1004700040003038C8F818002046E1688847064632
:1004800006F06EF90028EED1012F0AD02E2E08D1E9
:100490002046E16888477F1C0646022F45F020056C
:1004A000C4DBA069002803DA404245F00105A061E1
:1004B000E80701D025F01005A6B1A6F141001928E2
:1004C00002D8203645F400654A463146204625606C
:1004D0004D46FFF767FE60B1012807D0ED1D25F0FE
:1004E000070000E007E000F1080978E705F10409DA
:1004F00075E730467AE7206ABDE8F09F2E89000054
:10050000032A40F2308010F0030C00F0158011F83F
:10051000013BBCF1020F624498BF11F801CB00F817
:10052000013B38BF11F8013BA2F1040298BF00F86B
:1005300001CB38BF00F8013B11F0030300F02A8122
:10054000083AC0F0088051F8043B083A51F804CB4F
:10055000A0E80810F5E7121D5CBF51F8043B40F815
:10056000043BAFF30080D20724BF11F8013B11F820
:1005700001CB48BF11F8012B24BF00F8013B00F864
:1005800001CB48BF00F8012B704770477047704798
:10059000704753EA020C00F069802DE9F04B4FF0F0
:1005A0000006002B1FBFB3FA83F503FA05F424FA03
:1005B00005F65E4012BF1643B2FA82F502FA05F460
:1005C000C5F120051EBF22FA05FC44EA0C042035C3
:1005D00056EA044C4FEA144418BF641C4FF000085C
:1005E0004FF00009904271EB030C39D3002919BF79
:1005F000B1FA81F701FA07F6B0FA80F700FA07F6C8
:10060000C7F120071EBF20FA07FC46EA0C06203778
:10061000B6FBF4FCA7EB0507103F07F01F0BCBF16F
:1006200020060CFA0BFB2CFA06F644BFB346002654
:10063000202FA4BF5E464FF0000B5BEA060C08BFFC
:100640004FF0010B19EB0B09ABFB027C48EB0608E2
:10065000C01B06FB02CC0BFB03CC71EB0C01C1E70A
:100660000B46024641464846BDE8F08B13B54FF0B5
:1006700000004FF00001AFF30080BDE81C40704760
:100680002DE9F0470D4699469246044600F12408AC
:100690000168880604D5E06921F01001216000E0BE
:1006A0000120A84201DD471B00E00027A1697A195B
:1006B00002EB0900081AA0612078C00602D4204687
:1006C000FFF7F2FD002608E0D4E901211AF8060040
:1006D0009047206A401C761C20624E45F4DB20784F
:1006E000C0060AD52046FFF7DFFD06E0D4E9012168
:1006F00030209047206A401C2062381EA7F1010775
:10070000F4DC07E0D4E9012118F805009047206ADD
:10071000401C2062281EA5F10105F3DC2046FFF7EE
:10072000D9FD2078000602D50220BDE8F08701201F
:10073000FBE7000001694A1C02610878704700B5B8
:100740008FB0CDE901310021059105497944CDE90A
:10075000031011466846FFF737FE0FB000BD0000DA
:10076000E5FFFFFF0A6802F8010B0A60704700000E
:10077000074B70B50D467B44FFF7E1FF0446284662
:1007800000F03AF810B14FF0FF3070BD204670BD58
:100790009774000010B5203AC0F00B80B1E81850F3
:1007A000203AA0E81850B1E81850A0E81850BFF45B
:1007B000F5AF5FEA027C24BFB1E81850A0E81850FA
:1007C00044BF18C918C0BDE810405FEA827C24BF4E
:1007D00051F8043B40F8043B08BF7047D20728BFDC
:1007E00031F8023B48BF11F8012B28BF20F8023B2B
:1007F00048BF00F8012B7047007B00F08000704775
:100800000048704704C100207546FFF7F9FFAE4667
:1008100005006946534620F00700854618B020B50C
:10082000FFF7EAFCBDE820404FF000064FF000075C
:100830004FF000084FF0000B21F00701AC46ACE888
:10084000C009ACE8C009ACE8C009ACE8C0098D46F5
:10085000704710B50446AFF300802046BDE8104055
:10086000FFF7B5BCC0F3451140F26523C20A5943F6
:1008700040F23D135A4300F01F0001EB420100EB30
:100880004002C2EB401001EBC000074980B247F6BE
:10089000FF720880904201D2002001E04FF6FF7005
:1008A000088080B27047000030000020FEE70000A2
:1008B00008B50121042003F081FF4FF48070ADF8EA
:1008C000000001208DF8020018208DF80300694611
:1008D000034800F087FA062003F0C6FF08BD0000B9
:1008E0000008014070B500254FF4803405E08020F9
:1008F00004F0A0F908B144B101E0641EF7D240F25F
:10090000FF5004F053F9284670BD032070BD00006D
:1009100070B5124C0546616B11F0450FFBD00420F9
:1009200004F088F920B1042004F040F9032070BDE0
:10093000012004F07FF920B1012004F037F90120F3
:1009400070BD2069A84201D0102070BD40F2FF5058
:10095000A063606900F0080070BD000000800140E5
:1009600010B500244FF480310E4809E0426B12F0BC
:10097000450F05D009B1500705D5032404200CE02C
:10098000491EF3D2F7E7012004F054F918B101240D
:10099000204604F00BF940F2FF5004F007F920461E
:1009A00010BD00000080014010B50A49486B10F0EE
:1009B000450FFBD0042004F03DF920B1042004F0E1
:1009C000F5F8032010BD40F2FF5004F0EFF80020CE
:1009D00010BD0000008001402DE9F0411B4C0E4687
:1009E00007460025606B10F0450FFBD0042004F093
:1009F00021F928B1042004F0D9F80320BDE8F081E2
:100A0000012004F017F920B1012004F0CFF80120F3
:100A1000F4E72069B84210D140F2FF5004F0C6F864
:100A2000626912F4604F03D0900404D51320E5E707
:100A3000100C308007E0500401D51020DEE71004D0
:100A400001D50F20DAE72846D8E7000000800140F2
:100A500010B500244FF480320B4809E0416B11F0CF
:100A6000450F05D00AB1480705D50324042006E048
:100A7000521EF3D2F7E7480603D50024402004F0C5
:100A800095F8204610BD0000008001400029016853
:100A900002D041F0010102E04FF6FE721140016008
:100AA0007047000001684FF6FE721140016000219E
:100AB000016041608160C1603149314A083990422A
:100AC00003D1486840F00F0006E02D4A14329042EE
:100AD00004D1486840F0F00048607047284A283246
:100AE000904203D1486840F47060F5E7244A3C32F4
:100AF000904203D1486840F47040EDE7204A5032FC
:100B0000904203D1486840F47020E5E71C4A643203
:100B1000904203D1486840F47000DDE7184A78320B
:100B2000904203D1486840F07060D5E7154A111F24
:100B3000904203D1086840F00F0006E0114A1432D9
:100B4000904204D1086840F0F000086070470D4AF8
:100B50002832904203D1086840F47060F5E7094AF2
:100B60003C32904203D1086840F47040EDE7054AFA
:100B700050329042EAD1086840F47020E5E7000066
:100B8000080002400804024030B5026847F6F073DE
:100B90009A430C6A8B682343D1E904452C432343D1
:100BA0008C692343CC6923434C6A23438C6A2343D7
:100BB00013430360CA6842600A6882604968C16082
:100BC00030BD70478000A0F1C0400029016802D00C
:100BD00041F0010101E0024A11400160704700004C
:100BE000FEFF0F0010B5D0E901121143D0E9032335
:100BF0001A4311434269114382691143C269114387
:100C0000026A1143426A1143826A1143C26A114364
:100C1000026B114302689200A2F1C0421160816828
:100C2000082907D101688900A1F1C0410A6842F092
:100C300040020A60416BD1E9002342EA03128B684B
:100C40008C891B0243EA04431A430B8A42EA03528B
:100C50000B7D896942EA03620A4301688900A1F1B8
:100C6000C0414A60C16AB1F5804F08D000686FF09A
:100C700070418000A0F1C040C0F8041110BD816B2C
:100C8000D1E9002342EA03128B680C8A1B0243EA73
:100C900004531A430B7D896942EA036200680A43E0
:100CA0008000A0F1C040C0F8042110BD2DE9FC4730
:100CB0000024494F00944FF0080A019410204FF08F
:100CC0004009C7F800A0C7E901094FF48068C7E9E7
:100CD00003480E462546384603F0DCFF1020FFF798
:100CE00017FE00284DD13D480089000438603720A8
:100CF000C7E90109C7E90358384603F0CBFF37209D
:100D0000FFF706FE00283CD1411E07F11400C0E9A0
:100D1000001A302181600221C0E9031501214161DF
:100D200003F060FF3320C7F80890C7E90050C7E917
:100D30000358384603F0AEFF3320FFF7E9FD050006
:100D40001FD1DFF89C804FF4001A6F4640F22A69E9
:100D5000D8F8340010EA090F0BD1504603F06AFFAF
:100D60000028F5D003F090FF47F82400641C022C03
:100D7000EED3082003F05EFF28B1082003F016FF31
:100D80000420BDE8FC87022003F054FF20B10220BC
:100D900003F00CFF0220F4E7202003F04BFF20B10A
:100DA000202003F003FF0620EBE74FF400742046F9
:100DB00003F040FF20B1204603F0F8FE0720E0E7F3
:100DC00040F2FF5003F0F2FE009800BA7060019804
:100DD00000BA30602846D4E7581300201C000020D9
:100DE00000800140F0B5CC78002204F00F03E40647
:100DF00001D58C7823430C784FF00F0C14F0FF0FC3
:100E00004FF0010E1BD005680E880EFA02F4264042
:100E1000A64210D196000CFA06F725EA070703FA56
:100E200006F5CE783D43282E02D0482E02D002E0AF
:100E3000446100E00461521C082AE5D305600A8879
:100E4000FF2A1CD94468002202F108060EFA06F5B2
:100E50000E882E40AE420ED196000CFA06F7BC4327
:100E600003FA06F7CE783C43282E00D14561CE78B0
:100E7000482E00D10561521C082AE5D34460F0BD1C
:100E8000F0B5144C002801DAE36900E06368450D11
:100E90002E0185B2C0F30157B540C0F30342032FC2
:100EA00005D0C6020AD503269640B34307E023F0D7
:100EB0007062636823F07063636002E0AB4343F0E9
:100EC000706201B12A43002801DAE261F0BD62607C
:100ED000F0BD0000000001400246002092680A4276
:100EE00000D00120704741617047016170470000E8
:100EF000C10AC0F3451297235A43C1EBC10102EB6B
:100F0000810100F01F004D2200FB0210C0F30720FA
:100F1000C10800F0FC0241EAC20100F0F80041EA19
:100F2000002001494880704730000020FEE772B67B
:100F3000704762B6704700007CB5054600211E4828
:100F400000910191008902041C4802600D22426058
:100F50004022C0E902211101016103F09BFE184CFF
:100F6000606B0190014601E0616B019111F0450F4A
:100F7000FAD0012003F05EFE20B1012003F016FE3E
:100F800001207CBD042003F055FE20B1042003F0B5
:100F90000DFE03207CBD20690D2801D010207CBDF2
:100FA00040F2FF5003F002FE60690090C0F343205E
:100FB000287000207CBD00001C0000205813002079
:100FC0000080014008B50121442003F0F7FB182000
:100FD000ADF8000048208DF8030069460648FFF789
:100FE00001FF0120ADF8000028208DF803006946BC
:100FF0000248FFF7F7FE08BD001801400008014055
:101000002DE9F041254C264F264D012608B12670CA
:1010100001E0207878B110212846FFF75DFF88B104
:1010200008212846FFF758FF60B101213846FFF735
:1010300053FF012806D010212846FFF74DFF012855
:101040001DD028E00A2005F077FE00202070102136
:101050002846FFF741FF58B108212846FFF73CFF1B
:1010600048B101213846FFF737FF012805D012E0CB
:101070000120BDE8F0810220FBE70320F9E7082109
:101080002846FFF729FF012805D101213846FFF73F
:1010900023FF00B926700020EBE7000014000020B9
:1010A0000008014000180140C0F34511C20AC00207
:1010B00000EB4110104480B2704700002DE9F0436E
:1010C000174F0646002438887D884543B888A0F528
:1010D000D041043902D1B879012807D0002108464F
:1010E00003F060F903F002FA0E4815E00020B87131
:1010F0004FF02A09A7F80A904FF02B08A7F80C80A8
:10110000014603F04FF90120B871A7F80A80A7F84B
:101110000C90E7E70680641CAC42FBD3BDE8F0838B
:101120002C0300200008006C2DE9F04F4A492A23C7
:101130002B24898845F2105A4FF4305B4FF4285E17
:101140004FF448754FF0F00C49F241394FF4A07755
:1011500045F210364FF4F07280B13F484FF001086D
:10116000494580F806800780A0F802C001D0B1424E
:101170003ED12C2505814381848157E036484FF0CC
:101180000008494580F80680A0F800C0478006D0D6
:10119000A1F5D04CBCF1040C01D0B1420CD12C25EE
:1011A00005814381A1F5D0438481043B01D0B14244
:1011B00044D10780428041E0514507D1A0F808B0F2
:1011C000A0F80AE04FF42C5181810EE0A1F5C85639
:1011D000633E06D02221018120214181212181818C
:1011E0002CE02C210181448183810280458025E00F
:1011F000A1F5D04CBCF1040C09D051450BD1A0F89D
:1012000008B0A0F80AE04FF42C53838121E02C258C
:101210000581448109E0A1F5C85CBCF1630C12D0E2
:10122000222303812123438120238381A1F5D043FD
:10123000043B01D0B14201D102804780BDE8F04FAC
:10124000002002F0DBBF4FF02C0CA0F808C0438157
:10125000848105804280E9E72C0300202DE9F04FCE
:1012600001210E029FB0304603F090FA01214FF4A5
:10127000B47003F0A3FA0127ADF83C704FF01008EA
:101280008DF83F8003248DF83E400FA9FE48FFF7FC
:10129000A9FD4CF23370ADF83C0018258DF83F5095
:1012A0008DF83E400FA9F948FFF79CFD4FF680707E
:1012B000ADF83C008DF83F508DF83E400FA9F44842
:1012C000FFF790FD41F20100ADF83C008DF83F5072
:1012D0008DF83E400FA9EF48FFF784FD00200F2155
:1012E000CDE918011A901B901C901D901090CDE92B
:1012F0001104CDE91607149006211590CDE90010D0
:10130000CDE90208139004903101CDE9080106905F
:10131000059007908900CDE90A010C9017A80D905F
:1013200010A80E906846FFF75DFC01210620FFF72C
:1013300049FC322005F000FD002002F035FFD64DBB
:10134000D64C49F24139A88046F6040A45F2103BD2
:1013500045F210574FF6FF78FF2804D3404502D0DE
:10136000B0F5134F70D1D320208002F08DFEA880FD
:1013700002F08AFEA88002F087FE08EA00204146BB
:10138000A88002F081FEAA881043A88048455BD05F
:10139000BF20208002F078FEA88002F075FEA880B1
:1013A00002F072FEA88002F06FFE01EA0020A88021
:1013B00002F06AFEAA881043A880504544D0D42089
:1013C000208002F061FEA88002F05EFEA88002F09C
:1013D0005BFE01EA0020A88002F056FEAA881043B6
:1013E000A880584530D04FF45A40208002F04CFE7F
:1013F000A8804FF45B40208002F046FE01EA002006
:10140000A8804FF45C40208002F03EFEAA88104382
:10141000A880B0F5004F7DD0B84215D0A120208023
:1014200002F032FEA88002F02FFE01EA0020A88020
:1014300002F02AFEA9880843A0F5AE41A8806139D0
:1014400002D141F66310A880A98895A0FEF70CFF91
:10145000A888924DAD1C48457ED1CF202080002029
:101460002880C120288030202880ED202080642022
:101470002880032028801220288081202880E820CE
:10148000208085202880102028807A202880CB206A
:101490002080392028802C2028800020288034209B
:1014A000288002202880F720208020202880EA2021
:1014B0002080002028802880C02020801B202880B9
:1014C000C120208001202880C52020803020288055
:1014D0002880C7202080B720288036202080482000
:1014E00028803A20208055202880B12020800020AC
:1014F00028801A202880B62020800A202880A22058
:101500002880F220208000202880262020800120B2
:10151000288000E051E0E02020800F2028802A2051
:10152000288028202880082028800E202880082055
:10153000288054202880A9202880432028800A2041
:1015400028800F202880002028802880288028805C
:10155000E1202080002000E031E028801520288054
:101560001720288007202880112028800620288026
:101570002B202880562028803C2028800520288089
:10158000102028800F2028803F20288028800F20CE
:1015900028802B202080002028802880012028807F
:1015A0003F2028802A202080002028802880288032
:1015B000EF2028801120208084E0AF8044E7504550
:1015C00076D111202080142005F0B6FBD020208099
:1015D00007202880422028801D202880D1202080BC
:1015E000002028801A20288009202880D2202080EE
:1015F0000120288022202880C020208010202880E0
:101600003B2028800020288002202880112028806C
:10161000C520208003202880C8202080002028802A
:10162000252028802120288005202880002028804F
:101630000A2028806520288025202880772028807F
:10164000502028800F20288000202880F82020802B
:1016500001202880FE202080002028800220288071
:101660002020208036202080082028803A202080DA
:10167000552028802B2020800020288028800120D1
:1016800028803F20288014E0000C01400014014015
:1016900000180140002001402C030020FE07006CD0
:1016A000204C43442049443A25780D0A00000000AC
:1016B0000EE02A2020800020288028800120288019
:1016C000DF202880782005F037FB292001F02DBC91
:1016D00058457DD1ED20208001202880FE202880E3
:1016E000EE202080DE20288021202880F12020800C
:1016F00001202880DF20208010202880C420208026
:101700008F202880C620208000202880E22028808A
:1017100028802880BF202080AA202880B020208018
:101720000D202880002028800D202880002028807F
:10173000112028800020288019202880002028805F
:1017400021202880002028802D202880002028802B
:101750003D202880002028805D20288000202880CF
:101760005D20288000202880B120208080202880D3
:10177000002028808B202880002028809620288028
:1017800000202880B220208000202880288002208D
:101790002880002028800320288000202880B32073
:1017A0002080002028802880288028802880288089
:1017B00028802880288028802880288028802880E9
:1017C000288028802880288028802880288000E0A1
:1017D000FEE3288028802880B42020808B20288069
:1017E000002028809620288000202880A1202880A2
:1017F00000202880B520208002202880002028801A
:1018000003202880002028800420288000202880B1
:10181000B6202080002028802880B720208000204B
:10182000288028803F202880002028805E20288073
:101830000020288064202880002028808C20288098
:1018400000202880AC20288000202880DC202880F0
:101850000020288070202880002028809020288068
:1018600000202880EB20288000202880DC20288091
:1018700000202880B8202080002028802880288010
:1018800028802880288028802880BA202080242052
:1018900028800020288028802880C12020802020C7
:1018A0002880002028805420288000202880FF20C5
:1018B000288000202880C22020800A202880002044
:1018C00028800420288000202880C32020803C20FD
:1018D0002880002028803A20288000202880392075
:1018E00028800020288037202880002028803C2065
:1018F0002880002028803620288000202880322060
:101900002880002028802F202880002028802C205C
:101910002880002028802920288000202880262058
:10192000288000202880242028800020288024204F
:1019300028800020288023202880002028803C2028
:10194000288000202880362028800020288032200F
:101950002880002028802F202880002028802C200C
:101960002880002028802920288000202880262008
:1019700028800020288024202880002028802420FF
:101980002880002028802320288000202880C42050
:1019900020806220288000202880052028800020C8
:1019A00028808420288000202880F02028800020A3
:1019B00028801820288000202880A420288000204B
:1019C000288018202880002028805020288000208F
:1019D00028800C20288000202880172028800020C4
:1019E00028809520288000202880F320288000204F
:1019F0002880E620288000202880C52020803220F2
:101A0000288000202880442028800020288065200D
:101A100028800020288076202880002028808820A8
:101A2000288000202880C6202080202028800020B8
:101A3000288017202880002028800120288000206E
:101A40002880C720208000202880288028802880A7
:101A5000C820208000202880288028802880C92055
:101A600020800020288028802880288028802880C6
:101A70002880288028802880288028802880288026
:101A800028802880E02020801620288000202880C0
:101A90001C202880002028802120288000202880E9
:101AA000362028800020288046202880002028809A
:101AB0005220288000202880642028800020288050
:101AC0007A202880002028808B20288000202880F1
:101AD0009920288000202880A820288000202880A5
:101AE000B920288000202880C42028800020288059
:101AF000CA20288000202880D2202880002028802A
:101B0000D920288000202880E020288000202880FC
:101B1000F320288000202880E120208016202880C3
:101B2000002028801C202880002028802220288057
:101B3000002028803620288000202880452028800A
:101B400000202880522028800020288064202880BF
:101B5000002028807A202880002028808B20288060
:101B6000002028809920288000202880A820288014
:101B700000202880B920288000202880C4202880C8
:101B800000202880CA20288000202880D220288099
:101B900000202880D820288000202880E02028806D
:101BA00000202880F320288000202880E220208048
:101BB00005202880002028800B20288000202880F5
:101BC0001B202880002028803420288000202880A6
:101BD00044202880002028804F2028800020288052
:101BE00061202880002028807920288000202880FB
:101BF00088202880002028809720288000202880A6
:101C0000A620288000202880B72028800020288057
:101C1000C220288000202880C7202880002028801B
:101C2000D120288000202880D620288000202880ED
:101C3000DD20288000202880F320288000202880B4
:101C4000E320208005202880002028800A2028808A
:101C5000002028801C202880002028803320288015
:101C600000202880442028800020288050202880C0
:101C7000002028806220288000202880782028806A
:101C80000020288088202880002028809720288015
:101C900000202880A620288000202880B7202880C7
:101CA00000202880C220288000202880C72028808B
:101CB00000202880D120288000202880D52028805E
:101CC00000202880DD20288000202880F320288024
:101CD00000202880E4202080012028800020288007
:101CE00001202880002028800220288000202880D1
:101CF0002A202880002028803C202880002028805E
:101D00004B202880002028805D202880002028800B
:101D100074202880002028808420288000202880AB
:101D20009320288000202880A2202880002028805E
:101D3000B320288000202880BE2028800020288012
:101D4000C420288000202880CD20288000202880E2
:101D5000D320288000202880DD20288000202880B3
:101D6000F320288000202880E52020800020288083
:101D70002880288028800220288000202880292090
:101D80002880002028803C202880002028804B20AC
:101D90002880002028805D20288000202880742052
:101DA00028800020288084202880002028809320FC
:101DB000288000202880A220288000202880B320AE
:101DC000288000202880BE20288000202880C42071
:101DD000288000202880CD20288000202880D32043
:101DE000288000202880DC20288000202880F32004
:101DF000288000202880E6202080112028800020D4
:101E00002880342028800020288056202880002028
:101E100028807620288000202880772028800020B5
:101E200028806620288000202880882028800020A4
:101E300028809920288000202880BB20288000202E
:101E40002880992028800020288066202880002073
:101E500028805520288000202880552028800020B8
:101E600028804520288000202880432028800020CA
:101E700028804420288000202880E72020803220ED
:101E80002880002028805520288000202880762067
:101E90002880002028806620288000202880672055
:101EA0002880002028806720288000202880872024
:101EB0002880002028809920288000202880BB20AE
:101EC00028800020288099202880002028807720E2
:101ED0002880002028804420288000202880562048
:101EE000288000202880232028800020288033207C
:101EF0002880002028804520288000202880E82095
:101F00002080002028802880992028800020288098
:101F10008720288000202880882028800020288092
:101F200077202880002028806620288000202880B4
:101F30008820288000202880AA202880002028804F
:101F4000BB2028800020288099202880002028801D
:101F500066202880002028805520288000202880A6
:101F600055202880002028804420288000202880B8
:101F700044202880002028805520288000202880A8
:101F8000E9202080AA20288000202880288028801E
:101F90002080AA202880CF20208000202880288030
:101FA00028802880288028802880288028802880F1
:101FB0002880288028802880288028802880F02079
:101FC000208000202880502028800020288000E0E9
:101FD0002CE028802880F320208000202880F92011
:101FE000208006202880102028802920288000209A
:101FF00028803A20208055202880112020806420CD
:1020000004F09AFE2920208035202080002028809E
:1020100051202080FF202880532020802C202880E1
:1020200055202080822028802C20FCE3B8427DD1DE
:102030004FF470435521184602F062FA4FF2010541
:10204000AA21284602F05CFA6E1C5221304602F0AA
:1020500057FAAF1C0821384602F052FA4FF2040931
:102060000121484602F04CFA0D214FF4304002F0B5
:1020700047FA0D214BF2010002F042FA0D214BF21A
:10208000020002F03DFA4FF4364A3421504602F085
:1020900037FA34214BF2016002F032FA34214BF26C
:1020A000026002F02DFA4FF4314B0D21584602F038
:1020B00027FA0D214BF2011002F022FA0D214BF20A
:1020C000021002F01DFA34214FF4374002F018FAE2
:1020D00034214BF2017002F013FA34214BF20270FA
:1020E00002F00EFA00214FF4324002F009FA00210A
:1020F0004BF2012002F004FA00214BF2022002F020
:10210000FFF924214FF4384002F0FAF924214BF66C
:10211000010002F0F5F924214BF6020002F0F0F97B
:1021200001214FF43F4002F0EBF900E0FEE30F2104
:102130004FF4334002F0E4F90F214BF2013002F08A
:10214000DFF90F214BF2023002F0DAF934214FF4BB
:10215000394002F0D5F934214BF6011002F0D0F9E4
:1021600034214BF6021002F0CBF908214FF4354030
:1021700002F0C6F908214BF2015002F0C1F9082122
:102180004BF2025002F0BCF903214FF4424002F03E
:10219000B7F924214FF43A4002F0B2F924214BF66A
:1021A000012002F0ADF924214BF6022002F0A8F93B
:1021B00000214FF43C4002F0A3F978214BF6014096
:1021C00002F09EF900214BF6024002F099F900213D
:1021D0004FF43D4002F094F978214BF6015002F0A3
:1021E0008FF900214BF6025002F08AF900214FF4DA
:1021F0003E4002F085F964214BF6016002F080F95F
:1022000000214FF4514002F07BF933214DF20110CF
:1022100002F076F900214DF2021002F071F934213A
:102220004DF2031002F06CF900214DF2041002F09F
:1022300067F93A214DF2051002F062F900214DF2E2
:10224000061002F05DF94A214DF2071002F058F92C
:1022500000214DF2081002F053F95C214DF20910F3
:1022600002F04EF900214DF20A1002F049F98121E5
:102270004DF20B1002F044F900214DF20C1002F067
:102280003FF9A6214DF20D1002F03AF900214DF26E
:102290000E1002F035F9E5214DF20F1002F030F981
:1022A00001214DF2101002F02BF913214DF2111003
:1022B00002F026F901214DF2121002F021F9542109
:1022C0004DF2131002F01CF901214DF2141002F02E
:1022D00017F982214DF2151002F012F901214DF289
:1022E000161002F00DF9CA214DF2171002F008F98C
:1022F00002214DF2181002F003F900214DF21910DD
:1023000002F0FEF802214DF21A1002F0F9F8012154
:102310004DF21B1002F0F4F802214DF21C1002F0F5
:10232000EFF834214DF21D1002F0EAF802214DF2CF
:102330001E1002F0E5F867214DF21F1002F0E0F8E0
:1023400002214DF2201002F0DBF884214DF2211021
:1023500002F0D6F802214DF2221002F0D1F8A421A9
:102360004DF2231002F0CCF802214DF2241002F0BD
:10237000C7F8B7214DF2251002F0C2F802214DF244
:10238000261002F0BDF8CF214DF2271002F0B8F868
:1023900002214DF2281002F0B3F8DE214DF229108F
:1023A00002F0AEF802214DF22A1002F0A9F8F22153
:1023B0004DF22B1002F0A4F802214DF22C1002F085
:1023C0009FF8FE214DF22D1002F09AF803214DF2F4
:1023D0002E1002F095F810214DF22F1002F090F817
:1023E00003214DF2301002F08BF833214DF2311001
:1023F00002F086F803214DF2321002F081F86D21CF
:102400004DF2331002F07CF800214FF4524002F0FC
:1024100077F833214DF2012002F072F800214DF2DD
:10242000022002F06DF834214DF2032002F068F82A
:1024300000214DF2042002F063F83A214DF205200C
:1024400002F05EF800214DF2062002F059F84A2110
:102450004DF2072002F054F800214DF2082002F05E
:102460004FF85C214DF2092002F04AF800214DF2AC
:102470000A2002F045F881214DF20B2002F040F8CD
:1024800000214DF20C2002F03BF8A6214DF20D2068
:1024900002F036F800214DF20E2002F031F8E5216D
:1024A0004DF20F2002F02CF801214DF2102002F025
:1024B00027F813214DF2112002F022F801214DF2EC
:1024C000122002F01DF854214DF2132002F018F8EA
:1024D00001214DF2142002F013F882214DF2152053
:1024E00002F00EF801214DF2162002F009F8CA217F
:1024F0004DF2172002F004F802214DF2182001F0ED
:10250000FFFF00214DF2192001F0FAFF02214DF2E8
:102510001A2001F0F5FF01214DF21B2001F0F0FF20
:1025200002214DF21C2001F0EBFF34214DF21D2061
:1025300001F0E6FF02214DF21E2001F0E1FF6721CC
:102540004DF21F2001F0DCFF02214DF2202001F0AE
:10255000D7FF84214DF2212001F0D2FF02214DF25C
:10256000222001F0CDFFA4214DF2232001F0C8FF6D
:1025700002214DF2242001F0C3FFB7214DF22520A6
:1025800001F0BEFF02214DF2262001F0B9FFCF215C
:102590004DF2272001F0B4FF02214DF2282001F076
:1025A000AFFFDE214DF2292001F0AAFF02214DF2FA
:1025B0002A2001F0A5FFF2214DF22B2001F0A0FF0F
:1025C00002214DF22C2001F09BFFFE214DF22D2027
:1025D00001F096FF03214DF22E2001F091FF102112
:1025E0004DF22F2001F08CFF03214DF2302001F03D
:1025F00087FF33214DF2312001F082FF03214DF29C
:10260000322001F07DFF6D214DF2332001F078FF83
:1026100000214FF4534001F073FF33214DF201309C
:1026200001F06EFF00214DF2023001F069FF34210C
:102630004DF2033001F064FF00214DF2043001F04F
:102640005FFF3A214DF2053001F05AFF00214DF2B3
:10265000063001F055FF4A214DF2073001F050FFDE
:1026600000214DF2083001F04BFF5C214DF20930A2
:1026700001F046FF00214DF20A3001F041FF8121B7
:102680004DF20B3001F03CFF00214DF20C3001F017
:1026900037FFA6214DF20D3001F032FF00214DF23F
:1026A0000E3001F02DFFE5214DF20F3001F028FF33
:1026B00001214DF2103001F023FF13214DF21130B2
:1026C00001F01EFF01214DF2123001F019FF5421DB
:1026D0004DF2133001F014FF01214DF2143001F0DE
:1026E0000FFF82214DF2153001F00AFF01214DF25A
:1026F000163001F005FFCA214DF2173001F000FF3E
:1027000002214DF2183001F0FBFE00214DF219308C
:1027100001F0F6FE02214DF21A3001F0F1FE012126
:102720004DF21B3001F0ECFE02214DF21C3001F0A5
:10273000E7FE34214DF21D3001F0E2FE02214DF2A0
:102740001E3001F0DDFE67214DF21F3001F0D8FE92
:1027500002214DF2203001F0D3FE84214DF22130D0
:1027600001F0CEFE02214DF2223001F0C9FEA4217B
:102770004DF2233001F0C4FE02214DF2243001F06D
:10278000BFFEB7214DF2253001F0BAFE02214DF215
:10279000263001F0B5FECF214DF2273001F0B0FE1A
:1027A00002214DF2283001F0ABFEDE214DF229303E
:1027B00001F0A6FE02214DF22A3001F0A1FEF22125
:1027C0004DF22B3001F09CFE02214DF22C3001F035
:1027D00097FEFE214DF22D3001F092FE03214DF2C5
:1027E0002E3001F08DFE10214DF22F3001F088FEC9
:1027F00003214DF2303001F083FE33214DF23130B0
:1028000001F07EFE03214DF2323001F079FE6D21A0
:102810004DF2333001F074FE00214FF4544001F0CA
:102820006FFE332100E080E34DF2014001F068FECD
:1028300000214DF2024001F063FE34214DF20340CD
:1028400001F05EFE00214DF2044001F059FE3A21F4
:102850004DF2054001F054FE00214DF2064001F01A
:102860004FFE4A214DF2074001F04AFE00214DF291
:10287000084001F045FE5C214DF2094001F040FEA8
:1028800000214DF20A4001F03BFE81214DF20B4048
:1028900001F036FE00214DF20C4001F031FEA62180
:1028A0004DF20D4001F02CFE00214DF20E4001F0E2
:1028B00027FEE5214DF20F4001F022FE01214DF2ED
:1028C000104001F01DFE13214DF2114001F018FEE1
:1028D00001214DF2124001F013FE54214DF213403C
:1028E00001F00EFE01214DF2144001F009FE82219B
:1028F0004DF2154001F004FE01214DF2164001F0A9
:10290000FFFDCA214DF2174001F0FAFD02214DF200
:10291000184001F0F5FD00214DF2194001F0F0FDE5
:1029200002214DF21A4001F0EBFD00E0FFE201212F
:102930004DF21B4001F0E4FD02214DF21C4001F07C
:10294000DFFD34214DF21D4001F0DAFD02214DF290
:102950001E4001F0D5FD67214DF21F4001F0D0FD72
:1029600002214DF2204001F0CBFD84214DF22140A7
:1029700001F0C6FD02214DF2224001F0C1FDA4216B
:102980004DF2234001F0BCFD02214DF2244001F044
:10299000B7FDB7214DF2254001F0B2FD02214DF205
:1029A000264001F0ADFDCF214DF2274001F0A8FDFA
:1029B00002214DF2284001F0A3FDDE214DF2294015
:1029C00001F09EFD02214DF22A4001F099FDF22115
:1029D0004DF22B4001F094FD02214DF22C4001F00C
:1029E0008FFDFE214DF22D4001F08AFD03214DF2B5
:1029F0002E4001F085FD10214DF22F4001F080FDA9
:102A000003214DF2304001F07BFD33214DF2314086
:102A100001F076FD03214DF2324001F071FD6D2190
:102A20004DF2334001F06CFD00214FF4554001F0B0
:102A300067FD33214DF2015001F062FD00214DF29E
:102A4000025001F05DFD34214DF2035001F058FDBC
:102A500000214DF2045001F053FD3A214DF2055092
:102A600001F04EFD00214DF2065001F049FD4A21D2
:102A70004DF2075001F044FD00214DF2085001F0E5
:102A80003FFD5C214DF2095001F03AFD00214DF26D
:102A90000A5001F035FD81214DF20B5001F030FD5F
:102AA00000214DF20C5001F02BFDA6214DF20D50EE
:102AB00001F026FD00214DF20E5001F021FDE5212F
:102AC0004DF20F5001F01CFD01214DF2105001F0AC
:102AD00017FD13214DF2115001F012FD01214DF2AD
:102AE000125001F00DFD54214DF2135001F008FD7C
:102AF00001214DF2145001F003FD82214DF21550D9
:102B000001F0FEFC01214DF2165001F0F9FCCA2142
:102B10004DF2175001F0F4FC02214DF2185001F073
:102B2000EFFC00214DF2195001F0EAFC02214DF2B8
:102B30001A5001F0E5FC01214DF21B5001F0E0FCC0
:102B400002214DF21C5001F0DBFC34214DF21D50EE
:102B500001F0D6FC02214DF21E5001F0D1FC67219C
:102B60004DF21F5001F0CCFC02214DF2205001F03B
:102B7000C7FC84214DF2215001F0C2FC02214DF22C
:102B8000225001F0BDFCA4214DF2235001F0B8FC0D
:102B900002214DF2245001F0B3FCB7214DF2255033
:102BA00001F0AEFC02214DF2265001F0A9FCCF212C
:102BB0004DF2275001F0A4FC02214DF2285001F003
:102BC0009FFCDE214DF2295001F09AFC02214DF2CA
:102BD0002A5001F095FCF2214DF22B5001F090FCAF
:102BE00002214DF22C5001F08BFCFE214DF22D50B4
:102BF00001F086FC03214DF22E5001F081FC1021E2
:102C00004DF22F5001F07CFC03214DF2305001F0C9
:102C100077FC33214DF2315001F072FC03214DF26B
:102C2000325001F06DFC6D214DF2335001F068FC23
:102C300000214FF4564001F063FC33214DF2016056
:102C400001F05EFC00214DF2026001F059FC3421DC
:102C50004DF2036001F054FC00214DF2046001F0DC
:102C60004FFC3A214DF2056001F04AFC00214DF283
:102C7000066001F045FC4A214DF2076001F040FC7E
:102C800000214DF2086001F03BFC5C214DF209602F
:102C900001F036FC00214DF20A6001F031FC812187
:102CA0004DF20B6001F02CFC00214DF20C6001F0A4
:102CB00027FCA6214DF20D6001F022FC00214DF20F
:102CC0000E6001F01DFCE5214DF20F6001F018FCD3
:102CD00001214DF2106001F013FC13214DF211603F
:102CE00001F00EFC01214DF2126001F009FC5421AB
:102CF0004DF2136001F004FC01214DF2146001F06B
:102D0000FFFB82214DF2156001F0FAFB01214DF22B
:102D1000166001F0F5FBCA214DF2176001F0F0FBDF
:102D200002214DF2186001F0EBFB00214DF2196019
:102D300001F0E6FB02214DF21A6001F0E1FB0121F6
:102D40004DF21B6001F0DCFB02214DF21C6001F032
:102D5000D7FB34214DF21D6001F0D2FB02214DF270
:102D60001E6001F0CDFB67214DF21F6001F0C8FB32
:102D700002214DF2206001F0C3FB84214DF221605D
:102D800001F0BEFB02214DF2226001F0B9FBA4214B
:102D90004DF2236001F0B4FB02214DF2246001F0FA
:102DA000AFFBB7214DF2256001F0AAFB02214DF2E5
:102DB000266001F0A5FBCF214DF2276001F0A0FBBA
:102DC00002214DF2286001F09BFBDE214DF22960CB
:102DD00001F096FB02214DF22A6001F091FBF221F5
:102DE0004DF22B6001F08CFB02214DF22C6001F0C2
:102DF00087FBFE214DF22D6001F082FB03214DF295
:102E00002E6001F07DFB10214DF22F6001F078FB68
:102E100003214DF2306001F073FB33214DF231603C
:102E200001F06EFB03214DF2326001F069FB6D2170
:102E30004DF2336001F064FB5521184601F060FB50
:102E4000AA21284601F05CFB5221304601F058FBD4
:102E50000821384601F054FB0021484601F050FBA0
:102E6000CC21584601F04CFB00214BF2011001F03F
:102E700047FB0521504601F043FB70214FF43740DA
:102E800001F03EFB70214BF2017001F039FB012192
:102E90004FF4384001F034FB03214BF6010001F000
:102EA0002FFB03214BF6020001F02AFB03214BF616
:102EB000030001F025FB02214FF43C4001F020FB10
:102EC00000214BF6014001F01BFB00214BF60240B4
:102ED00001F016FBD0214FF4494001F011FB022113
:102EE0004CF6011001F00CFB50214CF6021001F0E1
:102EF00007FB50214CF6031001F002FB50214CF669
:102F0000041001F0FDFA00214FF4545001F0F8FADA
:102F100055214FF4685001F0F3FA4FF488502080A7
:102F2000782003F023FF4FF424502080FDE3A0F528
:102F300013414FF4E06940F23F1A4FF4274B253913
:102F40002ED0A0F5134140F2077728397DD0A0F5A7
:102F500013414FF4887B203978D0A0F513413139E3
:102F600075D0A0F5A841083972D0A0F5A8514FF44A
:102F7000407B05396DD0A0F5354105396AD0A0F503
:102F80004541053967D0A0F58A4131397ED0A0F599
:102F90008A4135397BD0A0F5C851633978D0C5E76F
:102FA00047F6F001E52001F0ABFA3146012001F0CF
:102FB000A7FA4946022001F0A3FA41F230010320AA
:102FC00001F09EFA0021042001F09AFA40F2022159
:102FD000082001F095FA0021092001F091FA002162
:102FE0000A2001F08DFA00210C2001F089FA00215D
:102FF0000D2001F085FA00210F2001F081FA002157
:10300000102001F07DFA0721112001F079FA00214A
:10301000122001F075FA0021132001F071FA00214D
:10302000072001F06DFA41F29061102001F068FA7A
:1030300040F22721112001F063FA9D21122001F0B6
:103040005FFA4FF4C851132006E081E03DE1E2E170
:10305000B8E253E3FEE3FEE301F052FA2521292012
:1030600001F04EFA0D212B2001F04AFA0721302001
:1030700001F046FA40F20331312001F041FA032118
:10308000322001F03DFA40F2062102E0FEE3FEE3C9
:10309000FEE3352001F034FA0821362001F030FA41
:1030A00040F20641372001F02BFA4FF441713820ED
:1030B00001F026FA0721392001F022FA40F20261DC
:1030C0003C2001F01DFA08213D2001F019FA0021F1
:1030D000502001F015FAEF21512001F011FA0021E2
:1030E000522001F00DFA5146532001F009FA5946D9
:1030F000602001F005FA0121612001F001FA0021B0
:103100006A2001F0FDF90021802001F0F9F9002189
:10311000812001F0F5F90021822001F0F1F9002170
:10312000832001F0EDF90021842001F0E9F900216C
:10313000852001F0E5F91021902001F0E1F94FF42C
:10314000C061922001F0DCF940F233110720FDE369
:1031500041F28F01EC2001F0D3F941F23421EF204C
:1031600001F0CEF93146012001F0CAF949460220AA
:1031700001F0C6F941F23001032001F0C1F900214C
:10318000042001F0BDF940F20221082001F0B8F955
:103190000021092001F0B4F900210A2001F0B0F962
:1031A00001210C2001F0ACF900210D2001F0A8F95B
:1031B00000210F2001F0A4F90021102001F0A0F956
:1031C0000721112001F09CF90021122001F098F94B
:1031D0000021132001F094F90121072001F090F95A
:1031E000322003F0A9FD41F29041102001F088F94E
:1031F00040F22721112001F083F9322003F09CFDD9
:103200008A21122001F07CF9322003F095FD4FF461
:10321000D051132001F074F90621292001F070F932
:103220000D212B2001F06CF9322003F085FD0021E7
:10323000202001F065F90021212001F061F9322000
:1032400003F07AFD0021302001F05AF940F20461C8
:10325000312001F055F940F20531322001F050F9EA
:103260000021352001F04CF940F60941362001F0EB
:1032700047F94FF40171372001F042F940F2013172
:10328000382001F03DF93946392001F039F90021A3
:103290003C2001F035F940F60A213D2001F030F9DB
:1032A000322003F049FD0021502001F029F9EF21DF
:1032B000512001F025F90021522001F021F9514659
:1032C000532001F01DF9594651E10021084601F053
:1032D00017F93146012001F013F94946022001F0A7
:1032E0000FF941F23001032001F00AF90021042016
:1032F00001F006F940F20221082001F001F9002155
:10330000092001F0FDF800210A2001F0F9F801215F
:103310000C2001F0F5F800210D2001F0F1F800215A
:103320000F2001F0EDF8322003F006FD40F201110C
:10333000072001F0E5F8322003F0FEFC4FF486513F
:10334000102001F0DDF80721112001F0D9F85B46CB
:103350005946122001F0D4F84FF43061132001F0E7
:10336000CFF80021292001F0CBF844F210012B20E6
:1033700001F0C6F80021502001F0C2F8EF215120E1
:1033800001F0BEF80021522001F0BAF85146532056
:1033900001F0B6F84FF41C51602001F0B1F80121A2
:1033A000612001F0ADF800216A2001F0A9F80021A8
:1033B000802001F0A5F80021812001F0A1F8002172
:1033C000822001F09DF80021832001F099F800216E
:1033D000842001F095F80021852001F091F810215A
:1033E000902001F08DF80021922001F089F8012150
:1033F000932001F085F81946952001F081F800210D
:10340000972001F07DF80021982001F079F840F232
:103410007311072085E341F21401E72001F070F8F1
:103420003146012001F06CF84FF40071022001F0E8
:1034300067F841F23801032001F062F840F20221FE
:10344000082001F05DF80021092001F059F8002161
:103450000A2001F055F800210C2001F051F800215C
:103460000D2001F04DF800210F2001F049F8002156
:10347000102001F045F80721112001F041F800214A
:10348000122001F03DF80021132001F039F8C82086
:1034900003F052FC41F29061102001F031F840F24B
:1034A0002721112001F02CF8322003F045FC0C21DB
:1034B000122001F025F8322003F03EFC4FF40061A9
:1034C000132001F01DF81121292001F019F80B211A
:1034D0002B2001F015F8322003F02EFC00212020D3
:1034E00001F00EF853465146212001F009F8002161
:1034F000302001F005F84FF483742146312000F0AC
:10350000FFFF0021322000F0FBFF4FF40171352056
:1035100000F0F6FF41F20A61362000F0F1FF394673
:10352000372000F0EDFF2146382000F0E9FF394652
:10353000392000F0E5FF40F202413C2000F0E0FFBE
:1035400040F60F413D2000F0DBFF0021502000F04D
:10355000D7FFEF21512000F0D3FF0021522000F0CF
:10356000CFFF1946532000F0CBFF4FF41C516020D1
:1035700000F0C6FF0121612000F0C2FF00216A2097
:1035800000F0BEFF0021802000F0BAFF0021812062
:1035900000F0B6FF0021822000F0B2FF002183205E
:1035A00000F0AEFF0021842000F0AAFF002185205A
:1035B00000F0A6FF1021902000F0A2FF4FF4C061A0
:1035C0009220FDE33146012000F09AFF4946022097
:1035D00000F096FF41F23001032000F091FF00213E
:1035E000042000F08DFF40F20721082000F088FF42
:1035F0000021092000F084FF00210A2000F080FF54
:1036000000210C2000F07CFF00210D2000F078FF4D
:1036100000210F2000F074FF142003F08DFB41F215
:10362000B061102000F06CFF0121112000F068FF54
:103630000121172000F064FF4FF49C71122000F06C
:103640005FFF4FF40061132000F05AFF0921292089
:1036500000F056FF09212A2000F052FF0021A4208B
:1036600000F04EFF0021502000F04AFFEF215120D2
:1036700000F046FF0021522000F042FF5146532047
:1036800000F03EFF4FF41C51602000F039FF012193
:10369000612000F035FF00216A2000F031FF002199
:1036A000802000F02DFF0021812000F029FF002163
:1036B000822000F025FF0021832000F021FF00215F
:1036C000842000F01DFF0021852000F019FF132148
:1036D000902000F015FF0021922000F011FF03213F
:1036E000932000F00DFF5946952000F009FF40F2AD
:1036F0007311072000F004FF322011E100210720A0
:1037000000F0FEFE322003F017FB4FF48E71122002
:1037100000F0F6FE0121A42000F0F2FE0F210820A7
:1037200000F0EEFE08210A2000E07BE300F0E8FE56
:1037300008210D2000F0E4FE3946302000F0E0FEC4
:103740000721312000F0DCFE40F20361322000F05E
:10375000D7FE4C464946332000F0D2FE40F202210B
:10376000342000F0CDFE0221352000F0C9FE41F6E4
:103770000F71362000F0C4FE3946372000F0C0FE3D
:103780000021382000F0BCFE0021392000F0B8FEF6
:1037900039463A2000F0B4FE00213B2000F0B0FE94
:1037A00007213C2000F0ACFE00213D2000F0A8FEE7
:1037B000322003F0C1FA0121072000F0A1FE01210F
:1037C000172000F09DFE322003F0B6FA4FF4BD51F1
:1037D000102000F095FE40F21721112000F090FE1D
:1037E0004FF48F71122000F08BFE4FF470611320A4
:1037F00000F086FE00212A2000F082FE0A21292006
:1038000000F07EFE4FF49F71122000F079FE00213F
:10381000502000F075FEEF21512000F071FE0021D4
:10382000522000F06DFE5146532000F069FE4FF427
:103830001C51602000F064FE0121612000F060FE58
:1038400000216A2000F05CFE0021802000F058FE7C
:10385000002101E067E065E1812000F051FE0021D8
:10386000822000F04DFE0021832000F049FE00215F
:10387000842000F045FE0021852000F041FE132148
:10388000902000F03DFE5946922002E013E2CAE289
:1038900071E300F035FE0521932000F031FE002198
:1038A000952000F02DFE0021972000F029FE002138
:1038B000982000F025FE3146012000F021FE21462F
:1038C000022000F01DFE41F23801032000F018FE36
:1038D0000021042000F014FE00210C2000F010FE56
:1038E00000210F2000F00CFE0021202000F008FE37
:1038F0000021212000F004FE2121072000F000FE1D
:10390000142003F019FA6121072000F0F9FD1420BA
:1039100003F012FA40F27311072000F0F1FD1420B9
:1039200003F00AFAA1E30021084600F0E9FD0021B6
:10393000084600F0E5FD0021084600F0E1FD002109
:10394000084600F0DDFD0121A42000E0E5E000F0E4
:10395000D7FD142003F0F0F94FF41C5421466020E9
:1039600000F0CEFD40F202252946082000F0C8FDF7
:103970004FF40571302000F0C3FD43F21571312082
:1039800000F0BEFD40F20461322000F0B9FD40F6C7
:103990001661332000F0B4FD42F21121342000F012
:1039A000AFFD4FF4A851352000F0AAFD48F20751B1
:1039B000362000F0A5FD41F20741372000F0A0FDC0
:1039C00041F20341382000F09BFD2021392000F016
:1039D00097FD1A21902000F093FD0021102000F0A7
:1039E0008FFD0721112000F08BFD0021122000F037
:1039F00087FD0021132000F083FD142003F09CF9C3
:103A00004FF4E661102000F07BFD40F237111120E9
:103A100000F076FD142003F08FF94FF4DC711220D2
:103A200000F06EFD142003F087F94FF4706113204D
:103A300000F066FD80212A2000F062FD4821292047
:103A400000F05EFD142003F077F93146012000F00C
:103A500057FD4946022000F053FD41F23801032092
:103A600000F04EFD2946082000F04AFD00210A2002
:103A700000F046FD00210C2000F042FD00210D2049
:103A800000F03EFD30210E2000F03AFD00215020D4
:103A900000F036FDEF21512000F032FD00215220D0
:103AA00000F02EFD5146532000F02AFD21466020F3
:103AB00000F026FD0121612000F022FD00216A2096
:103AC00000F01EFD1121902000F01AFD4FF4C0619E
:103AD000922000F015FD40F20241932000F010FD0D
:103AE0000221942000F00CFD142003F025F901219F
:103AF000072000F005FD142003F01EF961210720C6
:103B000000F0FEFC40F27311072000F0F9FC0021E8
:103B1000202000F0F5FC0021212000F0F1FC222102
:103B200000207DE10021084600F0EAFC0021084663
:103B300000F0E6FC142003F0FFF80021084600F036
:103B4000DFFC0021084600F0DBFC0021084600F005
:103B5000D7FC0021084600F0D3FC0121A42000F08E
:103B6000CFFC142003F0E8F84FF41C51602000F063
:103B7000C7FC40F60601082000F0C2FC40F20373C7
:103B80001946302000F0BCFC0121312000F0B8FCC7
:103B90000421322000F0B4FC4FF48171332000F096
:103BA000AFFC5C465946342000F0AAFC40F20311F9
:103BB000352000F0A5FC1F21362000F0A1FC19469D
:103BC000372000F09DFC0121382000F099FC0421F1
:103BD000392000F095FC1521902000F091FC4FF465
:103BE0008261102000F08CFC40F24721112000F08F
:103BF00087FC4FF4DE71122000F082FC4FF460610C
:103C0000132000F07DFC782003F096F83146012067
:103C100000F076FC4FF40071022000F071FC41F2DC
:103C20003001032000F06CFC08210A2000F068FC41
:103C300000210C2000F064FC20210E2000F060FC2C
:103C400000210F2000F05CFC0021202000F058FC37
:103C50000021212000F054FC3D212A2000F050FCDE
:103C6000142003F069F82D21292000F049FC0021DF
:103C7000502000F045FC4DF2EF01512000F040FCD7
:103C80000021522000F03CFC5146532000F038FC4B
:103C90000021612000F034FC00216A2000F030FC9B
:103CA0002146922000F02CFC0521932000F028FCF6
:103CB0003146FFF7AEBB0121002000F021FC0A20B5
:103CC00003F03AF841F22861102000F019FC0E21AF
:103CD000122000F015FC40F63921132000F010FCF2
:103CE0000A2003F029F84021112000F009FC50219E
:103CF000152000F005FC0A2003F01EF81E211220FA
:103D000000F0FEFB0A2003F017F84FF4B151102029
:103D100000F0F6FB42F63921132000F0F1FB0A20F7
:103D200003F00AF83146012000F0EAFB5946022070
:103D300000F0E6FB41F23801032000F0E1FB40F225
:103D40000221082000F0DCFB08210A2000F0D8FB4B
:103D50000021302000F0D4FB40F20241312000F07D
:103D6000CFFB4FF48371322000F0CAFB40F20351C5
:103D7000332000F0C5FB4FF48271342000F0C0FB0B
:103D800040F20131352000F0BBFB3946362000F00F
:103D9000B7FB40F20531372000F0B2FB4FF402715F
:103DA000382000F0ADFB40F60B71392000F0A8FB85
:103DB0000221412000F0A4FB4FF41C51602000E0E0
:103DC000D4E000F09DFB0121612000F099FB4FF44D
:103DD0000471902000F094FB4FF48571922000F064
:103DE0008FFB0421932000F08BFB3146A02000F0D4
:103DF00087FB0121072000F083FB2121072000F031
:103E00007FFB2321072000F07BFB3321072000F0FC
:103E100077FB40F23311072000F072FB0021A02055
:103E200000F06EFB21E13021152000F069FB10212C
:103E30009A2000F065FB2021112000F061FB43F285
:103E40002841102000F05CFB0221122000F058FBFA
:103E500041F23801132000F053FB282002F06CFFE0
:103E60001221084600F04CFB282002F065FF43F2C7
:103E70002041102000F044FB43F23801132000F0F1
:103E80003FFB462002F058FF0021302000F038FBB5
:103E900040F20241312000F033FB40F20731322082
:103EA00000F02EFB4FF44171332000F029FB042178
:103EB000342000F025FB40F20141352000F020FBCA
:103EC0003946362000F01CFB40F20531372000F067
:103ED00017FB4FF4C2631946382000F011FB194656
:103EE000392000F00DFB3146012000F009FB594656
:103EF000022000F005FB41F23001032000F000FB3E
:103F000040F60801082000F0FBFA08210A2000F022
:103F1000F7FA4FF41C51602000F0F2FA0121612001
:103F200000F0EEFA4FF49F71902000F0E9FA31466C
:103F3000922000F0E5FA3146932000F0E1FA4FF4C8
:103F40004051A02000F0DCFA1021A32000F0D8FAA4
:103F50000121072000F0D4FA2121072000F0D0FA37
:103F60002321072000F0CCFA3321072000F0C8FA03
:103F700040F233119DE6E220208023202880022099
:103F8000288004202880642002F0F0FEE0202080B9
:103F9000012028800A2002F0CFFEE02020800320AC
:103FA00028800C2002F0C8FE012020800A2002F0A8
:103FB000C3FEE620208003202880FF202880288060
:103FC000B020208020202880002028800320288006
:103FD00040F21F3028800120288040F2DF10288026
:103FE00000202880B42020800420288040F21F4038
:103FF000288000202880D220288000202880288047
:1040000028802880B6202080022028804FF403706A
:104010002880002028802220288009202880002055
:1040200028802880F02020800320288029202080DC
:10403000D020208000202880BE20208005202880DD
:10404000FE20288001202880FF2028800020288052
:10405000B82020800F20288001202880BA202080CE
:1040600001202880642000F0ABF80020FDF75CF808
:1040700004490120C1F880014046FDF71FF81FB038
:10408000BDE8F08F00802142034808B50088ADF8F4
:104090000000BDF8000008BD0008006C2DE9F041EB
:1040A0003F4E002425463288824202D972888A42D5
:1040B00002D80020BDE8F08100F074F9B08849F220
:1040C0004138384B41F6631745F2103145F2105232
:1040D000404508D0A0F5D04CBCF1040C03D0884278
:1040E00001D0B84202D14FF02E0C06E0904202D12E
:1040F0004FF4385C01E04FF0220CA3F800C0A0F5AB
:104100001343203B03D10220401EC0B2FCD2FFF774
:10411000BBFFB388BB42CDD00220401EC0B2FCD250
:10412000FFF7B2FF0746B088404503D0884201D070
:1041300090420BD10220401EC0B2FCD2FFF7A4FF78
:104140000546F8B24FF6FF7303EA0024B088A0F5E5
:104150001343253B1DD0A0F58A43353B19D0A0F56C
:104160008A43313B15D0A0F53543053B11D0A0F56E
:104170004543053B0DD0404503D0884201D09042D5
:1041800009D1F80AC002A10A40EA411040EAD5204C
:1041900090E738468EE73846BDE8F041FCF784BF2B
:1041A0002C030020FE07006C044910B50880052090
:1041B00002F0DCFDBDE81040FFF766BFFE07006CB3
:1041C0000C4A10B5BE211180941C0521218004F0F9
:1041D000C2F94FF06632084B04F0D0F904F08EF9C2
:1041E000208001202080FF2020800020208020804F
:1041F00010BD0000FE07006C66660440F0B5674E17
:1042000000233146B279898846F6040741F66314E3
:10421000012A01D02AB11DE0B9421BD0A14202D12E
:1042200018E0A14216D1082814D2DFE800F00406F5
:10423000080A0C0E101206200CE007200AE00420E9
:1042400008E0052006E0012004E0002002E0032051
:1042500000E00220A1F5134C45F2103245F2105552
:10426000BCF1410C07D0B94205D0914203D0A9421C
:1042700001D0A14275D1082812D2DFE800F0110464
:1042800006080A0C0E1080230AE0402308E0C02331
:1042900006E0202304E0602302E0A02300E0E02306
:1042A000A94202D14FF4585000E03620914205D087
:1042B000A94203D0A14201D043F00803B94201D181
:1042C00043F00203194600F01BF9B288A2420AD05B
:1042D00098063088718802D5884202D303E088426C
:1042E00001D9318070802E48811CAA4272890280D7
:1042F00021D100230B80531C038000230B80931CCF
:10430000038033885B1E1C0A0C80D21C0280DAB248
:104310000A80B289028000230B80531C0380002393
:104320000B80931C038073885B1E1C0A0C80D21CBC
:104330000280D8B212E000220A800A803288521E1F
:10434000130A0B80D2B20A80B28902800020088052
:1043500008807088401E020A0A80C0B20880F0BD42
:10436000FFE7082812D2DFE800F0040608110A0C63
:104370000E1030230AE0102308E0202306E0382343
:1043800004E0282302E0182300E00823BDE8F04001
:10439000032043F4805100F0B3B800002C03002048
:1043A000FE07006C2DE9F04F4E4F0B463A46BD8894
:1043B0000C0ADFF834B191895289A5F513464FEA0A
:1043C000102C0BF1020A413E1DD0A5F5A646103E69
:1043D00019D03E46BE4696F806903688A5F5D047D9
:1043E000A6EB0008A8F10108043F17D0A5F5C857AF
:1043F000633F28D0A5F5AA477646103F51D0B9F1C2
:10440000010F63D064E0ABF800205246AAF800C068
:10441000C0B2AAF80000ABF800100FE0B9F1010F2C
:1044200001D11FFA88F0ABF80020050A5246AAF81D
:104430000050C0B2AAF80000ABF800101480D8B247
:104440001080BDE8F08FB9F1000F1BD0ABF8002051
:104450005246AAF800C0C0B2AAF80000761E300A80
:10446000AAF80000F0B21080ABF8001011461480DA
:10447000D8B21080BEF80200401E020A0A80C0B204
:104480000880DEE71FFA88F0ABF8002000265246CD
:10449000AAF80060AAF80060060AAAF80060C0B294
:1044A000E1E7ABF80020AAF800C0521CABF80020EE
:1044B000C0B2AAF80000ABF80010AAF80040491CEE
:1044C000ABF80010D8B2AAF80000BAE71FFA88F0DB
:1044D0000146104600F014F8B089BDE8F04F1946C7
:1044E00000F00EB82C030020FE07006C02480349C0
:1044F00000890880704700002C030020FE07006C34
:10450000024A1080901C018070470000FE07006C7A
:1045100038B50121482000F051F92024ADF80040C1
:1045200010208DF8030003200B4D8DF80200694622
:104530002846FCF757FC20212846FCF7D6FCADF8AE
:104540000040064C69462046FCF74CFC20212046E2
:10455000FCF7CBFC38BD0000000C01400018014006
:10456000FEE7704730B50F23C27801780125F2B11C
:10457000144A126801F1E02102F4E062C2F5E0623F
:10458000120AC2F10404D3404278A24084781C404D
:104590001443220181F80024007800F01F018D40AF
:1045A0004009800000F1E020C0F8005130BD01F06A
:1045B0001F0085404809800000F1E020C0F88051CC
:1045C00030BD00000CED00E00249084302490860DC
:1045D000704700000000FA050CED00E02DE9F843FB
:1045E000002401214FF49E7000F0E8F844488169EE
:1045F00041F0010181614FF40040ADF80000482016
:104600008DF803000320DFF8FC808DF80200694676
:104610004046FCF7E7FB10253B4FADF80050042661
:104620008DF8036069463846FCF7DCFB10213846FC
:10463000FCF75BFC4020ADF800008DF80360334EC2
:1046400069463046FCF7CEFB40213046FCF74DFC76
:104650000820ADF800008DF8035069463846FCF795
:10466000C1FB08213846FCF73EFCAE02ADF8006005
:104670008DF8035069464046FCF7B4FB314640468E
:10468000FCF733FCFF20ADF8000028208DF8030074
:1046900069461F48FCF7A6FB01211E48FCF7F0FB0A
:1046A000FCF706F900F0E6F88021122000F018FA75
:1046B00010B10120BDE8F883322002F03DFB12204A
:1046C00000F06AF90B2000F067F9732804D10A2082
:1046D00000F062F9762801D00220EBE70E4D05EBE1
:1046E0004400417815F8140000F0FAF9022002F0B5
:1046F00023FB641CA4B2552CF1D30020DAE70000A0
:104700000010024000200140000C01400014014054
:104710000010014000023000788700082DE9F041C8
:10472000054600EB420086B201EB430084B20F461F
:10473000B4F5447F02D9A4F54474A4B2032000F078
:104740002BF906F00302294600F0F00062F39F0106
:104750000143032000F0C4F9C5F38701192000F0DC
:10476000BFF9C6F387011A2000F0BAF9322000F031
:1047700013F9C7F3C701172000F0B2F9C4F3C7015A
:10478000BDE8F041182000F0ABB97047044A002999
:10479000516901D0014300E081435161704700003D
:1047A00000100240044A0029D16901D0014300E011
:1047B0008143D1617047000000100240044A002983
:1047C000916901D0014300E081439161704700008D
:1047D0000010024030B5204A5168204B11F00C0106
:1047E00003D0042901D0082901D0036012E05168E8
:1047F000536801F470114FF0020413F4803F04EB8E
:10480000914102D053689B0301D5154B00E0134B37
:104810005943016051680F2303EA1111114B5C5C8D
:104820000168E14041605468072505EA14241C5DD5
:1048300021FA04F48460546805EAD4241B5DD9404D
:10484000C1605268032303EA9232064B1B1F9A5C35
:10485000B1FBF2F1016130BD0010024000127A009C
:1048600000093D00580000200149C8717047000050
:104870000010024038B501214FF49070FFF79EFF01
:104880004FF40055ADF8005048208DF80300032088
:10489000114C8DF8020069462046FCF7A3FA294620
:1048A0002046FCF722FB0820ADF8000010200B4D3D
:1048B0008DF8030069462846FCF794FA082128463B
:1048C000FCF713FB606820F470006060606840F4DF
:1048D0004010606038BD000000200140001401401D
:1048E00070B5322002F042FA0C4D0120C5F8B40137
:1048F0000B4EC6F88C01322005F5DA7506F5C67642
:1049000002F034FA00243460322002F02FFA2C60D6
:10491000BDE87040322002F029BA000000002442B5
:10492000008022422DE9F047184F0024786820F4D7
:1049300070007860786840F400007860DFF850908C
:10494000144E08254FF00108A246322002F00EFA5C
:10495000C6F88C816006040ED9F8340108B1641CD5
:10496000E4B2322002F002FAC6F88CA16D1E15F0F6
:10497000FF05EAD1786820F470007860786840F428
:10498000401078602046BDE8F0870000002001401C
:10499000000024420080224210B5044600F022F8B4
:1049A000422000F055F8642002F0E0F9204600F0C3
:1049B0004FF8642002F0DAF900F02EF8642002F0DB
:1049C000D5F900F00FF8432000F042F8642002F01F
:1049D000CDF9FFF7A7FF0446FFF782FF00F01CF8B0
:1049E000204610BD70B50A4E0120C6F8B401094D2D
:1049F000C5F88C01322005F5C67506F5DA7602F0A9
:104A0000B5F900243460322002F0B0F92C6070BD9A
:104A1000000024420080224270B50B4C0020C4F8F4
:104A2000B401322004F5DA7402F0A0F90748012538
:104A3000C0F88C51322002F099F92560BDE8704031
:104A4000322002F093B9000000002442008022428C
:104A50002DE9F04700241F4E1F4F0546A0464FF09A
:104A60000109280601D5484600E04046C6F8B401D1
:104A70006806050E322002F079F9C7F88C913220D1
:104A800002F074F9C7F88C81641CE4B2082CE8D3F6
:104A9000124C606820F470006060606840F40000B0
:104AA0006060322002F062F9C7F88C91322002F087
:104AB0005DF9D6F8340100B10120C7F88C81616836
:104AC00021F470016160616841F440116160BDE8EA
:104AD000F0870000000024420080224200200140B4
:104AE00070B50D4606460024FFF77CFF4220FFF715
:104AF000AFFF00B10124642002F038F93046FFF71F
:104B0000A7FF00B10124642002F030F92846FFF726
:104B10009FFF00B10124FFF77FFF204670BD00001A
:104B20002DE9FC41002600963546019600B102258C
:104B30001B484069800102D50E20BDE8FC81194C5C
:104B40006946208980B2FCF7B1F80028F5D10198B8
:104B5000400322D52089144C00044FF04008206007
:104B60003720C4E901084FF480672046C4E9036791
:104B700000F090F83720FBF7CBFE0028DDD10620AF
:104B8000C4F80880C4E90050C4E90367204600F077
:104B900081F80620FBF7BCFECFE72520CDE700001B
:104BA000008001401C000020581300200149886348
:104BB00070470000008001400149C1F8A000704723
:104BC00000003042034A516821F0FF010143516067
:104BD00070470000008001400149086070470000F4
:104BE0008C05304210B5094902684A6242688A62FF
:104BF000CA6AD0E902342343D0E90440044322F0D6
:104C0000F70223431343CB6210BD00000080014034
:104C100006480021016041608160C160416281629B
:104C2000C162034A8263C163704700000080014093
:104C3000FF07C000034A01460020526B0A4200D021
:104C400001207047008001400248006800F0030026
:104C5000704700000080014000F06CBB30B5094B8C
:104C60005A6847F6FF618A43017D8468C56821431D
:104C700044682C43214304680069214301431143E4
:104C8000596030BD008001400148D0F88000704775
:104C90000080014010B5084902688A60CA68D0E9FE
:104CA00001342343D0E9034004436FF30A02234352
:104CB0001343CB6010BD00000080014004490A6826
:104CC00022F003020A600A6802430A60704700008B
:104CD000008001400149C1F8800070470080014018
:104CE000F0B50F4604468BB0154601210220FFF7B0
:104CF0004DFD114E3046FBF7D5FE00213046FBF747
:104D0000C5FE0E4880218DE83100B80803900020D0
:104D1000CDE90401890006918900CDE907108900D9
:104D2000CDE9091069463046FBF72EFF00213046D9
:104D3000FBF7ACFE0BB0F0BD4404024080800140A4
:104D400010B51049044600200978032906D019B18E
:104D5000012901D0022902D1022C01D3272010BD44
:104D6000E0B2FFF7DDFE0028F9D107494A6822F4D6
:104D7000C0524A604A68A3B242EAC3224A604A6803
:104D80004A6010BD1C000020008001402DE9F04762
:104D90008249DFF80CA24FF0000C0B7880F85630F7
:104DA0000989A0F85410DAF800104FF001090A0E32
:104DB00095090570C2F38305457002F00302827005
:104DC0000A0CC2700A0A02714171DAF80420110E4D
:104DD0000C01C2F3074144EA111401F00F08C4802A
:104DE000C2F3072180F80880CC094472C1F3801413
:104DF0008472C1F34014C472C1F3001404735446A6
:104E000080F80DC0A468260EC4F30745C4F3072735
:104E100033B1012B04D0032B02D0022B30D03EE063
:104E20008907090DD2B241EA820141EA9612C6F31E
:104E3000C2010261017506F00701417569098175BA
:104E4000C5F38201C175A9074B0F394643EAD11555
:104E50000576AD1C09FA05F3DE17521CA2FB0357B9
:104E60000CFB037302FB063309FA08F2A5FB026789
:104E7000026503FB027205FB0C22C0E912620EE020
:104E80009106890A41EA06222A430261521C530B09
:104E9000D204C0E912234FF4007239460265C1F30F
:104EA0008012427689064A0EE1B242EAD11200F837
:104EB0001A2F01F07F014170DAF80C20110ECB0996
:104EC0008370C1F34113C370C1F382030371890777
:104ED0000B0FC2F3074143EA91134371C1F340132F
:104EE000837180F807C001F001010172C2F307214C
:104EF000CB094372C1F380138372C1F34013C372B1
:104F0000C1F300130373C1F38103437301F0030181
:104F10008173C2F34601224AC173103280F81090A7
:104F200011684B460C0E84740C0CC1F3072545EA3E
:104F3000042484820C0651680D0E44EA0544C1F332
:104F4000074544EA0524C1F307252C43C0F8164061
:104F500000F81A1F91680C0E44700C0CC1F3072561
:104F6000240644EA0544C9B244EA0124D16844EA6B
:104F70001164C1F307424460047A44EA12140472D3
:104F8000C1F30724120744EA12524281C1F34601D9
:104F9000017343736046BDE8F08700001C000020E9
:104FA000841300207CB501213020FFF707FC01218C
:104FB00040F20240FFF7EAFB4FF4F850ADF8000072
:104FC00018258DF8035003248DF8024069462948BE
:104FD000FBF708FF0420ADF800008DF80350264DC4
:104FE0008DF8024069462846FBF7FCFE8021ADF8AB
:104FF000001048208DF803008DF8024069462846CD
:10500000FBF7F0FEFFF704FE31208DF804000020CE
:105010008DF805008DF8060001208DF8070001A825
:10502000FFF7A0FA00F0B8F8144C80B900F02AF8A5
:1050300068B92046FFF7AAFE48B9B4F85400000446
:1050400000F054FC18B90120FFF77AFE18B10C49A2
:10505000097803290AD194F8560040B1012806D0F6
:105060000420FFF7AFFD002000F056FC7CBD0A20B5
:10507000F7E700000010014000140140A8130020D1
:105080001C0000202DE9F84F0120ADF80000FFF7CB
:10509000DBFD88B3DFF8F49099F80000042872D0A3
:1050A0003B4C02204FF0C00B0025C4F808B0C4E907
:1050B00000504602C4E903562046FFF7EBFDFBF71C
:1050C0004FFC00281AD1334F796904F13C0001608C
:1050D000B9694160F9698160396AC16099F8000075
:1050E0004FF0030A4FF0400850B1012808D00628BD
:1050F00006D0022804D012E0FFE72520BDE8F88F93
:10510000C4F80880C4E9005AC4E903562048FFF7F0
:10511000C1FD69460320FBF75FFC0028EED199F83A
:10512000000003280FD1BDF80000C4F80880000477
:10513000C4E9000AC4E903561548FFF7ABFDFBF7C5
:105140000FFC0028DAD199F8000004281BD0BDF824
:105150000000C9F80800000420600920C4E9010B20
:10516000C4E903560A48FFF795FDFBF7F9FB002851
:10517000C4D1796906482C300160B9694160F96988
:105180008160396AC1600020B8E700001C0000207F
:1051900058130020008001402DE9F05F002760488F
:1051A000B2213E460175076047608760C7603C4694
:1051B0003D46B946B8460761FFF750FD0320FFF7AB
:1051C0007DFD0120FFF7F8FCDFF854A14FF4806B60
:1051D0000AF1180A5248CAF80080CAF80480CAF8CE
:1051E0000880CAE9038B1830FFF754FDFBF77AFB00
:1051F00028B17F1CFFB24A2FECD3BDE8F09F4FF4DB
:10520000D570CAF8000008205746CAF804004020AC
:10521000C7E902080001CAF8100041481830FFF73A
:1052200039FDFBF715FC20B93E4901204FF08049BC
:105230000870BA46384641463722402780E8860043
:10524000C0F80C8036483901C3461830CAF810102F
:10525000FFF720FD3720FBF75BFB4FF6FF7888B3A5
:10526000B9465646304F4FF0010B4FF4806ABDB33C
:105270004DE055463720C5E900B04FF48068CAF8C4
:1052800010802748C5E9027B5E461830FFF702FD13
:105290003720FBF73DFB0028AFD1244949EA010044
:1052A00028602920C5E90107C5E903681C481830B2
:1052B000FFF7F0FCFBF778FB00289ED11A494E69F6
:1052C000F50F641C1DB94FF6FF718C42D1D34FF618
:1052D000FF718C421DD216F0804F8ED002221BE04F
:1052E00013E01348C6E9000B0020C6F810A0C6E979
:1052F00002900B481830FFF7CDFCFBF755FB002858
:10530000CAD17969CD0F641CB1E74445E9D344455E
:1053100001D31B2071E7032202490A706DE70000E8
:10532000401300201C00002000800140000010807D
:105330000080FF802DE9F041354C606B354DC00594
:105340004CF23A3620D5A878002101280CD0E9701B
:10535000A06B40F48070A063E06BB043E063012079
:105360002871E878BDE8F0812B480C22C0E90012D2
:105370004022C0E9022111010161FFF78BFC0C20E2
:10538000FBF7C6FAE870E3E70220FFF753FC40B1F1
:105390000220FFF70BFCE06BB043E0630220E870F3
:1053A000E0E70820FFF746FC40B10820FFF7FEFBCE
:1053B000E06BB043E0630420E870D3E72020FFF700
:1053C00039FC40B12020FFF7F1FBE06BB043E06314
:1053D0000620E870C6E71020FFF72CFC40B1102033
:1053E000FFF7E4FBE06BB043E0630520E870B9E74A
:1053F0004FF400773846FFF71DFC0028B2D038463E
:10540000FFF7D4FBE06BB043E0630720E870A9E747
:10541000008001401C000020581300202DE9F84FA7
:1054200017460A9E05004FF0FF3466D0DFF8D081A2
:105430000020C8F82C00DFF8CCA14FF4007B9AF8CC
:105440000010022903D1570A5E4647EAC357814636
:1054500001466D484FF0FF328160C0E90021012212
:10546000C160C0E90412FFF7BDFBD8F81400800149
:1054700002D50E20BDE8F88F701EB0F5006F3CD24B
:1054800006423AD1304601F0D5FA00905E4810212C
:105490001438C0E900614021C0E902190901016125
:1054A000FFF7F8FB1020FBF733FA0028E2D1009851
:1054B00001015548C0E901614FF0FF310160012150
:1054C00041610221C0E90319FFF78CFB4E4811210D
:1054D0001438C0E900714021C0E9021909010161D5
:1054E000FFF7D8FB1120FBF713FA0700C2D19AF897
:1054F000010020B1012858D07BE02620BAE7FBF755
:1055000016FD46464FF4004ADFF8009140F22A6843
:1055100010E05046FFF78EFB50B10020D6F8801007
:1055200045F82010401C0828F8D34C46203501E0EF
:10553000D4B3641E716B11EA080FEAD00820FFF79C
:1055400079FB18B10820FFF731FB56E00220FFF786
:1055500071FB20B10220FFF729FB02208AE72020FF
:10556000FFF768FB20B12020FFF720FB062081E732
:105570005C465846FFF75EFB40B12046FFF716FB3E
:10558000072077E7FFF780FB01C501E04FF4001427
:105590002046FFF74FFB0028F4D1FBF7CAFC40F28E
:1055A000FF50FFF703FB24E027E0002231462846A6
:1055B000FFF796FB55468AF803908AF802908AF81E
:1055C0000490D8F83C1040F22A321143C8F83C103D
:1055D0000120FFF701FB0E4800E0641E016889040A
:1055E00003D4297909B9E97829B134B1E87800B14F
:1055F000EF7838463EE7002CEFD104203AE7000070
:10560000008001401C0000206C130020FFFF7F0081
:10561000000402402DE9FC470027CD0D4E028046D4
:10562000810791464FF4007018D00024824612E0A2
:105630006002821945EBE073CDF800A01248FFF735
:10564000EDFE0746524610494046FAF759FF641CE2
:1056500008F50078E4B24C45EAD30AE0B9F1010F4D
:105660000AD0CDE9000932462B46404600F00EF83C
:1056700007463846BDE8FC87009032462B46404638
:10568000FFF7CCFEF4E70000001400202DE9FF5FD7
:1056900082B09148DDE91068DFF840A20299002548
:1056A000C16017464FF0FF34CAF82C50007802282A
:1056B00003D10602570A47EAC35789484FF0010B46
:1056C000A1468560C0E90045C560C0E9045BFFF7FD
:1056D00089FADAF81400800103D50E2006B0BDE87F
:1056E000F09F701EB0F5006F21D206421FD13046E8
:1056F00001F0A0F900907A4810211438C0E9006147
:10570000402181600021C1604FF480610161FFF799
:10571000C1FA1020FBF7FCF80500DFD14046B8F1D4
:10572000010F31D900FB06F8B8F1007F01D3262024
:10573000D4E7009801016A48C0F80090C0E90181EF
:10574000012141614FF000090221C0E903194D46D2
:10575000FFF748FADFF888B11221ABF1140B584675
:10576000C0E900714021CBE902150901CBF8101006
:10577000FFF790FA1220FBF7CBF80500AED1564E9A
:10578000707810B1012878D0A3E0FBF7D0FB574622
:1057900040F22A3814E04FF40040FFF74BFA60B1B2
:1057A000F1680020D7F8802041F82020401C08280C
:1057B000F8D320314B4CF16002E0002C7FD0641E06
:1057C000786B10EA080FE6D00820FFF733FA18B11B
:1057D0000820FFF7EBF972E00220FFF72BFA20B167
:1057E0000220FFF7E3F9022078E72020FFF722FAF2
:1057F00020B12020FFF7DAF906206FE74FF400749C
:105800002046FFF717FA58B12046FFF7CFF90720D7
:1058100064E7FFF739FA0146F06802C0F06001E082
:105820004FF400142046FFF705FA0028F1D14FF499
:105830008070FFF7FFF9C0B1307818B1012801D0AE
:10584000022812D158460C22C0E900924022CBE92E
:105850000229234811011438CBF81010FFF71AFA67
:105860000C20FBF755F80500BED1FBF762FB40F2B8
:10587000FF50FFF79BF92CE0FFE74146002202981A
:10588000FFF72EFA86F803900121B17086F8049094
:10589000DAF83C1040F22A321143CAF83C10DAF828
:1058A0002C1041F00801CAF82C100F4800E0641ECB
:1058B0000168890402D4002CF9D100E00CB904205D
:1058C0000CE7307910B9F0780028FAD0F07800B100
:1058D000F578284602E700001C0000200080014007
:1058E0006C130020FFFF7F0000040240094910B53F
:1058F000086007204860402088600020C8604FF49E
:10590000806008610846FFF7C5F9BDE81040072030
:10591000FAF7FEBF581300200021012803D010B170
:10592000262108467047014A5070FAE71C00002003
:105930002DE9FC5F4FF000050C9F90469B4604004C
:105940008DF800502E46B9465FD0DFF8A0A2CAF805
:105950002C50A748691E8560C0E900150121C5606B
:10596000C0E90451FFF73EF9DAF81400800102D5CE
:105970000E20BDE8FC9FDFF87CA29AF80000022808
:1059800004D107024FEA582040EACB58781EB0F500
:10599000006F3AD2074238D1384601F04BF8DFF8B1
:1059A00050B20190ABF1140B58461021C0E90071C0
:1059B0004021CBE902150901CBF81010FFF76AF975
:1059C0001020FAF7A5FF0028D3D18A48DA460089CB
:1059D0000104CBF800100D215846CBF804104021EB
:1059E000C0E9021582480901AB461438CAF8101004
:1059F000FFF750F90D20FAF78BFF0028B9D17B494A
:105A000048694FF0FF358A4618E02620B1E779480B
:105A10006D1E008901047648143801600D21416033
:105A20004021C0E9021B09010161FFF733F90D2094
:105A3000FAF76EFF00289CD1DAF81400C00502D4F2
:105A4000002DE4D12DE065B3694818211438C0E970
:105A500000814021C0E9021B09010161FFF71AF929
:105A60001820FAF755FF002883D1DFF8888100213C
:105A70004FF0FF3B88F8021001985D4602015C4838
:105A8000C0F800B0C0E901720122C160C0E904128F
:105A9000FFF7A8F898F8010028B14646012861D020
:105AA00093E0292065E7FBF742FA40F21A6827E005
:105AB0004FF48040FFF7BEF800B3A9EB06002028A2
:105AC0000FD281074FEA900700D07F1C002505E028
:105AD0002068FFF7FFF8241D6D1C361DBD42F7D36B
